:100000000C9485080C94BD080C94BD080C94BD0894
:100010000C94BD080C94BD080C94BD080C94BD084C
:100020000C94BD080C94BD080C94D5160C94B01C0F
:100030000C9403290C94BD080C94BD080C94BD08C5
:100040000C94BD080C94BD080C94BD080C94BD081C
:100050000C94BD080C94AE170C94BD080C94BD080C
:100060000C94BD080C94E4310C94C1310C94BD087F
:100070000C94BD080C94BD080C94BD080C94BD08EC
:100080000C94BD080C94BD080C94BD080C94BD08DC
:100090000C94BD080C94BD080C94BD080C94BD08CC
:1000A0000C94BD080C94BD080C94BD080501090210
:1000B000A10185020901A1000509190129081500FE
:1000C0002501950875018102050109300931158165
:1000D000257F95027508810609381581257F9501D0
:1000E00075088106050C0A38021581257F95017572
:1000F000088106C0C005010980A101850319012AF4
:10010000B700150126B700950175108100C0050CD8
:100110000901A101850419012AA002150126A002E6
:10012000950175108100C00660FF0961A101096297
:10013000150026FF00952075088102096315002629
:10014000FF00952075089102C005010906A101056F
:100150000719E029E7150025019508750181029529
:1001600001750881010507190029FF150026FF0008
:100170009506750881000508190129059505750181
:100180009102950175039101C0000000000000007C
:10019000000000000000000000000000000000005F
:1001A000000000000000000000000000007E0F00C2
:1001B000D4FFFFFFC700000078000000000000002F
:1001C000002A2B28000000000000000000000000B2
:1001D0000000000029000000002C1E3420212224F1
:1001E000342627252E362D3738271E1F202122237F
:1001F0002425263333362E37381F04050607080911
:100200000A0B0C0D0E0F10111213141516171819D6
:100210001A1B1C1D2F3130232D3504050607080934
:100220000A0B0C0D0E0F10111213141516171819B6
:100230001A1B1C1D2F3130354C00DA0281FFD9F119
:10024000DB20A4A62EAF00A0C000A1C800AED580C0
:10025000A81FD300408D1420001E0F0500047F3F0F
:100260001F643214643214783C1E1E140A05000008
:10027000000000000000000000000000000000007E
:100280000000000000000C0E1E3EFCF8F0E0E0C094
:1002900080000000000000000000000000000000DE
:1002A000000000000000000000000000000000004E
:1002B000000000000000000000000000000000003E
:1002C000000000000000000000000000000000002E
:1002D000000000000000000000000000000000001E
:1002E000000000000000000000000000000000000E
:1002F000000000000000000000000607070787C795
:10030000C7E7FFFFFFFF3F1F1F8FCFC7C7C7CFCF75
:100310008F1F3F7EFCF8F0E080000000F8F8F080CE
:1003200080C0C0C0C080800000F0F0F000000080FD
:10033000C0C0C0C0C0C0808000008080808080C0FD
:10034000C0C0C0C0800000008080C0C0C0C080802D
:10035000F0F8F800008080C0C0C0C0C0C0800000BD
:100360000080808080C0C0C000000000000000004D
:100370000000000000C0E0E0F0F8FC7E3E3F1F0FF0
:100380007FFFFFFFFFE080000F3F3F7F7F7F7F3FCA
:100390003F0F00C0F1FFFFFFFF3E0000FFFFFFE344
:1003A000C1C1C1C1E3FFFF7F00FFFFFF001E7FFF50
:1003B000FFCD8C8CCCCDCFCF0F00FFFFFF0701010D
:1003C000010107FFFFFE007FFFFFE3C1C1C1C1E3E1
:1003D000FFFFFF003E7FFFFFCC8C8CCCCFCF0F0EFA
:1003E00000FFFFFF0301010100000000000000000A
:1003F00000000000000303030301000000000000F0
:100400000001070F1F1F3F3F7E7E7C7C7C7C7C7E33
:100410007E7F3F3F1F0F0703010000000101010025
:1004200001010101010000000000010100000000C5
:1004300000010101010100000000000101000000B5
:1004400000000001010000000000010101010100A5
:100450000101010000000001010101010100000093
:100460000001010100000000000000000000000089
:10047000000000000000000000000000000000FE7E
:10048000FEFEFEFEFEFEFEFEFEFEFEFEFEFEFEFE8C
:10049000FEFEFEFEFEFEFEFEFEFEFEFEFEFE000078
:1004A0000000000000000000E03830C000000080C4
:1004B000404040F8000080404040C08000F8C0400C
:1004C000404080000080404040800000000000006C
:1004D000000000000000000000000000000000001C
:1004E000000000000000000000000000000000000C
:1004F000000000000000000000000000000000FFFD
:10050000FFFFFFFFFFFFFFFFFF7F0FF3FDF9E31F7B
:100510007FFFFFFFFFFF19FFFFFFFFFFFFFF00004F
:100520000000000000001807020202031E100F184E
:100530001010101F00000F101010180F001F1810BF
:1005400010100D07070A121212130000000000001D
:10055000000000000000000000000000000000009B
:10056000000000000000000000000000000000008B
:10057000000000000000000000000000000000FF7C
:10058000FFFFFFFFFFFF7F0FC1F8FBFBFBFBFBF94A
:10059000F0C71FFFFFFF00FFFFFFFFFFFFFF00008F
:1005A00000000000000000FE0000FFFE00FFFE0053
:1005B000F0E0000000F0F000E0F090101030FCF8E7
:1005C0001010F0F0203030909090F0E0E030FCFC23
:1005D0001080E070301030F0E080F0E0303000004B
:1005E000000000000000000000000000000000000B
:1005F0000000000000000000000000000000007F7C
:100600007F7F7F7F7F7F7F7F7F7F7F7F7F7F7F7FFA
:100610007F7F7F7F7F7F7F7F7F7F7F7F7F7F0000E8
:10062000000000000000000F00000F0F000F0F007F
:10063000070F0C08040F0F080808090F0700070F21
:1006400008080F0F0000070F08080C0F0F00070F16
:100650000801070E08080C0707010F0F0000000033
:100660000000000000000000000000000000C0F0DA
:10067000F8FCFCFEFEFEFEFEFEFEFEFEFEFEFEFEA4
:10068000FEFEFEFEFEFEFEFCFCF8E00000000000A8
:10069000000000000000000000000000000000005A
:1006A000000000000000000000000000000000004A
:1006B000000000000000000000000000000000003A
:1006C000000000000000000000000000000000002A
:1006D000000000000000000000000000000000001A
:1006E000C0C0000000000000000000000000FFFF8C
:1006F000FFFFFFFFFFFFFFFF7F7F7F3F3F3F3F1F6A
:100700001F1F0F8F8FE7F3FFFFFFFF0000000000A8
:10071000000080FCFEFE3E1C0C0E0EFEFEFC700077
:10072000F0FEFEFE1C1C0E0EE6F0FCFC1E0E0E0E75
:100730001EFEFCF8E0C0F03C0C0606020206068035
:10074000FC7E180C0606C6F0F88C86C6C2C67E3C37
:1007500000E0F01C0C06060202E6FE1E0006E6FFA4
:100760001F070606F0F89C8686C2C2667E3CFFFF25
:10077000FFFF1F87C3E1E1F0F0F0F0F8F8F8FCFCB0
:10078000FEFFFFFFFFFFFFFFFFFFFF000000000075
:1007900000F0FFFFFF3F3838381C1F0F0703001E13
:1007A0001F1F0F0000000000070F1F1F3C38381CE0
:1007B0001F0F0F0300071F18303030101800101FD4
:1007C000070000000000071F183030301010000034
:1007D000000F1F303010180C1E1F0300000C1F39B3
:1007E000301000010F1D1830303010180000010FBC
:1007F0001F3F3F7F7F7F7F7F7F7F7F7F7F7F7F7FE9
:100800007F7F7F7F7F7F3F3F1F0F0700000000003B
:1008100006070707000000000000000000000000BD
:1008200000000000000000000000000000000000C8
:1008300000000000000000000000000000000000B8
:1008400000000000000000000000000000000000A8
:100850000000000000000000000000000000000098
:100860000000000000000000000000000000556EC5
:10087000646566696E6564000001010101010101A2
:100880000101020202020202020202030303030345
:100890000303030404040404040405050505050614
:1008A00006060606070707070708080808090909D2
:1008B000090A0A0A0B0B0B0C0C0C0D0D0D0E0E0E7B
:1008C0000F0F0F101011111112121313141415150C
:1008D00016161717181819191A1A1B1B1C1D1D1E7E
:1008E0001E1F2020212222232424252626272829D2
:1008F000292A2B2C2D2D2E2F303132323334353600
:100900003738393A3B3C3D3E3F40414243444546FF
:100910004748494A4C4D4E4F5051535455565859DB
:100920005A5B5D5E5F616264656668696B6C6D6F82
:100930007072737577787A7B7D7E808283858788F5
:100940008A8C8E8F91939596989A9C9EA0A2A3A52F
:10095000A7A9ABADAFB1B3B5B7BABCBEC0C2C4C630
:10096000C9CBCDCFD1D4D6D8DBDDDFE2E4E7E9EBEC
:10097000EEF0F3F5F8FAFDFFFFAA7F55402223259C
:100980002628292A2C2D2F3032333536383A3B3D54
:100990003E4042434547494A4C4E505153555759A2
:1009A0005A5C5E6062646668696B6D6F71737577BF
:1009B000797B7D7F81838587898A8C8E90929496BE
:1009C000989A9C9E9FA1A3A5A7A8AAACAEAFB1B3CD
:1009D000B4B6B8B9BBBCBEBFC1C2C3C5C6C7C9CA1D
:1009E000CBCCCDCED0D1D2D2D3D4D5D6D7D7D8D9DF
:1009F000D9DADADBDBDBDCDCDCDCDCDDDDDDDDDC3D
:100A0000DCDCDCDCDBDBDBDADAD9D9D8D7D7D6D54E
:100A1000D4D3D2D2D1D0CECDCCCBCAC9C7C6C5C310
:100A2000C2C1BFBEBCBBB9B8B6B4B3B1AFAEACAA5D
:100A3000A8A7A5A3A19F9E9C9A98969492908E8C0D
:100A40008A89878583817F7D7B79777573716F6DE7
:100A50006B6968666462605E5C5A595755535150C1
:100A60004E4C4A4947454342403E3D3B3A38363575
:100A70003332302F2D2C2A29282625232200AF009F
:100A8000AE000000000000160157005800AA00A99F
:100A90000011502E0056006200000000006300614B
:100AA000005E005B0000000000550060005D005A21
:100AB000000000000054005F005C005900000000CE
:100AC00000000030012F010C002D012E01125010EA
:100AD000001B001901010001004C0015001C00065C
:100AE00001010001000E01040013001D01010001BD
:100AF000000E00190011001400000000000000307A
:100B0000082F080D082F003000105018081B001B7C
:100B100008000000000E081900060006080000008A
:100B2000000F00070808001D080000000027081635
:100B30000005002C0009025B00030100A0FA090473
:100B40000000010301010009211101000122400000
:100B500007058103080001090401000203000000E9
:100B60000921110100012222000705820320000152
:100B7000070503032000010904020001030000002F
:100B8000092111010001227B0007058403200001D7
:100B90001201000200000008616E646001000102A1
:100BA00000010E0354004900440042004900540073
:100BB000000012036E0075006C006C00620069009A
:100BC0007400730000000403090407087F0807008D
:100BD0003E5B4F5B3E003E6B4F6B3E001C3E7C3EDF
:100BE0001C00183C7E3C18001C577D571C001C5EE6
:100BF0007F5E1C0000183C180000FFE7C3E7FF0001
:100C0000001824180000FFE7DBE7FF0030483A0631
:100C10000E00262979292600407F05050700407F20
:100C200005253F005A3CE73C5A007F3E1C1C08004B
:100C3000081C1C3E7F0014227F2214005F5F005FAF
:100C40005F0006097F017F00006689956A00606089
:100C50006060600094A2FFA2940008047E04080073
:100C600010207E20100008082A1C0800081C2A08F2
:100C700008001E10101010000C1E0C1E0C00303846
:100C80003E383000060E3E0E060000000000000058
:100C900000005F000000000700070000147F147FC1
:100CA0001400242A7F2A12002313086462003649A4
:100CB00056205000000807030000001C22410000DD
:100CC0000041221C00002A1C7F1C2A0008083E0844
:100CD00008000080703000000808080808000000C4
:100CE000606000002010080402003E5149453E00AB
:100CF00000427F4000007249494946002141494D68
:100D000033001814127F10002745454539003C4A2E
:100D10004949310041211109070036494949360046
:100D2000464949291E00000014000000004034001C
:100D3000000000081422410014141414140000418F
:100D4000221408000201590906003E415D594E0077
:100D50007C1211127C007F49494936003E414141D5
:100D600022007F4141413E007F49494941007F09BE
:100D7000090901003E41415173007F0808087F00C6
:100D800000417F4100002040413F01007F081422C4
:100D900041007F40404040007F021C027F007F04F2
:100DA00008107F003E4141413E007F0909090600CD
:100DB0003E4151215E007F091929460026494949D3
:100DC000320003017F0103003F4040403F001F20ED
:100DD00040201F003F4038403F0063140814630068
:100DE0000304780403006159494D4300007F4141E9
:100DF0004100020408102000004141417F0004022C
:100E00000102040040404040400000030708000089
:100E10002054547840007F284444380038444444E7
:100E20002800384444287F003854545418000008DF
:100E30007E09020018A4A49C78007F0804047800AE
:100E400000447D4000002040403D00007F102844C9
:100E5000000000417F4000007C04780478007C089A
:100E600004047800384444443800FC182424180052
:100E700018242418FC007C08040408004854545426
:100E8000240004043F4424003C4040207C001C20FB
:100E900040201C003C4030403C00442810284400C6
:100EA0004C9090907C004464544C440000083641BF
:100EB0000000000077000000004136080000020139
:100EC000020402003C2623263C0000000000000033
:100ED000404040F0F8F8FF38FFF8F83FF8F8FF38E6
:100EE000FFF8F8F040404000000000000080C0C063
:100EF000C0800000C0C08000000080C0C000C0C032
:100F0000000080C0C00000000000C0C0C0C0C00021
:100F1000C0C0000000000000000000000000000051
:100F200000000000000000000000000000000000C1
:100F300000000000000000000000000000000000B1
:100F4000000000000000000000C0F0F8FC3E1E069B
:100F5000010000007F4141417F007F4141417F000E
:100F60000080C0E07E5B4F5BFEC00000C000DCD7AD
:100F7000DEDEDED7DC00C000000000000000000064
:100F80000000000000000000000000000000000061
:100F9000494949FFFFFFFFE0DFBFBF00BFBFDFE000
:100FA000FFFFFFFF49494900000000001F3F60604C
:100FB000E0BF1F007F7F071E381E077F7F007F7FF7
:100FC0000E1F3B716000000000007F7F0C0C0C00C6
:100FD0007E7E007F7E0303007F7E03037E7E03030D
:100FE0007F7E000F3E703C063C703E0F00327B4916
:100FF000493F7E007F7E0303001E3F69696F260024
:10100000000000000000000000030F1F3F3C78704C
:10101000600000007F4141417F007F4141417F00EE
:10102000307B7F7830202030787F3B0003000F7FBB
:101030000F0F0F7F0F0003000000000000000000F2
:1010400000000000000000000000000000000000A0
:10105000010101070F0F7F0F7F0F0F7E0F0F7F0F13
:101060007F0F0F07010101000000000000000000D9
:10107000000101000000000000000000000000006E
:101080000000000000000000000000000000000060
:101090000000000000000000000000000000000050
:1010A0000000000000000000000000000000000040
:1010B0000000000000000000000000000000000030
:1010C0000000000000000000000000000000000020
:1010D0000000000000000000000000000000000010
:1010E0000000000000000000000000000000000000
:1010F00000000000000000000000000000000000F0
:101100000000000000000000000011241FBECFEF0F
:10111000DAE0DEBFCDBF04B603FE18C08091400602
:1011200090914106A0914206B09143068730904BC2
:10113000A740B04B59F4109240061092410610920D
:10114000420610924306E0E0F8E3099526E0A6EC9B
:10115000B1E001C01D92A034B207E1F711E0A0E0B8
:10116000B1E0E6E5F7E602C005900D92A63CB107B6
:10117000D9F70E942A290C9480330C940000CF9355
:10118000DF934091FA045091FB044A5F52409A0168
:101190003E5F21303240C0F020E032E0241B350BAE
:1011A0006091F8027091F902FC01CA01240F351F09
:1011B000C1E0D0E08217930750F07093F90260937A
:1011C000F802DF91CF91089520E032E0E9CF449119
:1011D000DC01A650BD4F5C91451781F04C93AC01EA
:1011E000A5E056954795AA95E1F7DE0102C0AA0F42
:1011F000BB1F4A95E2F7AD016A2B752B019631961C
:10120000D9CFE8EDF0E080818E7F80831092E200FC
:101210001092DA001092E100A0EEB0E08C918160B3
:101220008C9380818F77808319BCA7EDB0E08C917F
:101230008E7F8C9380818F7E80831092D60208955A
:101240002091E4003091E50095E6A9012091EC00A1
:10125000822F817020FF06C08091E80080FF06C0C9
:1012600080E008952091E80022FD1AC08091E302F9
:10127000882389F0853089F08091EB0085FD0FC0CF
:101280002091E4003091E50042175307F9F29150A4
:10129000E1F684E0089582E0089583E0089581E016
:1012A0000895EF92FF920F931F93CF937C018B01D0
:1012B0000E942009C82F811117C08091E80085FD88
:1012C0000BC08091E8008E778093E8000E9420098F
:1012D000882399F3C82F08C0F70181917F0180937B
:1012E000F1000150110949F78C2FCF911F910F91F7
:1012F000FF90EF9008958091E50287FF13C08091E1
:10130000E80082FF06C08091E8008B778093E800B8
:1013100004C08091E3028111F2CF08958091E3022D
:101320008823D9F38091E80080FFF8CF8091E8000E
:101330008E77ECCF982F9093E900242F762F50E0F2
:10134000891731F07091EC002091ED005091F00080
:1013500021FD07C09F5F973071F78093E90081E01E
:1013600008953091EB003E7F3093EB003091ED001B
:101370003D7F3093ED003091EB0031603093EB0016
:101380007093EC002093ED005093F0002091EE005C
:1013900027FDE0CF80E00895CF92DF92EF92FF9299
:1013A0000F931F93CF93DF93C8EDD0E088818F7E9A
:1013B0008883E7EDF0E080818160808384E082BFF4
:1013C00081E08093D60288818E7F888302EE10E0D0
:1013D000F80110821092DA0081EEC82ED12CF601AD
:1013E000108288818F77888388818068888388814C
:1013F0008F7D888319BC1092E3021092E402109250
:10140000E2021092E10290EEE92EF12CF7018081C8
:101410008B7F808388818160888342E060E080E008
:101420000E949A09F60180818E7F8083F801808175
:1014300081608083808188608083F70180818E7FD6
:101440008083888180618883DF91CF911F910F9184
:10145000FF90EF90DF90CF900895FC018091EB0218
:101460009091EC0286179707A0F06115710529F499
:101470009091E8009E779093E80090E061157105E7
:1014800051F4911108C08091E80082FF34C080E0DF
:101490000895BC01F2CF8091E3028823C1F1853029
:1014A000C1F18091E80083FD30C08091E80082FDA9
:1014B000EACF8091E80080FFE1CF8091F300209196
:1014C000F200382F6115710519F02830310558F0F8
:1014D00091E02830310509F090E02091E8002E7766
:1014E0002093E800CBCF81918093F1006150710986
:1014F0002F5F3F4FE7CF8091E302882341F0853093
:1015000041F08091E80083FFBECF81E0089582E042
:10151000089583E0089508958091D80208952FB723
:10152000F8946091CF027091D0028091D102909195
:10153000D2022FBF08959C01FC0132969FEF80E0FC
:101540004191461751F09F3F19F4411101C0982F66
:101550008F5F8630A9F79F3F09F40895290F311D49
:1015600097FD3A95F901628308952091CC0230915C
:10157000CD022817390771F09093CD028093CC02E9
:10158000E091CA02F091CB02309721F00084F185FE
:10159000E02D099408952091C8023091C9022817BE
:1015A000390771F09093C9028093C802E091CA0292
:1015B000F091CB02309721F00680F781E02D09945D
:1015C0000895E091CA02F091CB02309721F001908A
:1015D000F081E02D099480E00895FA01811101C0A5
:1015E000FB01099408958091BD02982F9E7F29F4F4
:1015F000817082608093BD0208958635E8F3817022
:101600008465F8CFAF92BF92DF92EF92FF920F9373
:101610001F93CF93DF93082F162FE901E42FF0E0FB
:10162000E858F74F611110C0E4915E2F4E2F4983A7
:10163000E8835A83DF91CF911F910F91FF90EF9034
:10164000DF90BF90AF900895E62EF12C4491D42EF8
:10165000E42FF0E026E0829FC00111242FEF30E05C
:10166000B9010E940632802F90E0880F991F55E53E
:10167000569FD001579FB00D11248A1B9B0B982FAA
:10168000990F890F5901AE18BF08AE9ED001AF9EC9
:10169000B00DBE9EB00D11245B2F189F8001112448
:1016A000012F11275901A01AB10AAE9E8001AF9EE9
:1016B000100DBE9E100D11245901A81AB108AE9C40
:1016C000C001AF9C900DBE9C900D1124892F9927CD
:1016D000281B390B2E9FC0012F9F900D3E9F900D10
:1016E0001124E92F62307105A1F050F461157105E4
:1016F00009F49DCF6130710581F0EB2F512F97CF09
:101700006430710569F080F06630710509F48FCF9F
:10171000F4CFE42F4B2F592F8ACFE42F412F87CFBF
:10172000EB2F542F492F83CF4B2F5D2DE12F7FCFF0
:1017300040916E02803F59F480916F0287FF0DC087
:1017400010926F0241110BC01092660208C0813FD7
:1017500081F480916F0218169CF3442381F08091EC
:10176000700290917102892B09F05AC010926502A3
:101770000895823F49F447FFF0CF10926E028091A6
:101780006F028111ECCFE0CF833F19F41416ACF354
:10179000E4CF90917002893F29F41916F4F6109263
:1017A0007002DBCF8A3F19F497FFD7CFF8CF909123
:1017B00071028B3F29F497FFD0CF10927102CDCFE9
:1017C0008C3F19F41916CCF3C8CF9CE0980F9530D4
:1017D00090F4845F990B21E030E0B90102C0660FFC
:1017E000771F8A95E2F7CB01809590916D0289234E
:1017F00080936D02B2CF8D3F31F4809167028E7F6E
:1018000080936702AACF8E3F21F4809167028D7F7B
:10181000F7CF8F3F09F0A1CF809167028B7FF0CF88
:1018200008958091670280FD16C081FD16C082FD7B
:1018300016C0809165028823A1F0883280F428E0E8
:10184000829FC001112468E270E00E944832862F16
:10185000672B39F0089582E0089584E0089588E0C8
:10186000089581E008958091670280FD14C081FD94
:1018700014C082FD16C080916602882381F08E31EB
:1018800080F420E5829FC00111246EE170E00E9487
:101890004832862F089584E1089588E2089588E00B
:1018A000089580E50895803F31F40E94330C8195BE
:1018B00080936F020895813F19F40E94330CF8CF92
:1018C000823F31F40E94330C819580936E0208951B
:1018D000833F19F40E94330CF8CF893F29F40E940A
:1018E000110C8093700208958A3F21F40E94110C1C
:1018F0008195F7CF8B3F31F40E94110C8195809335
:10190000710208958C3F19F40E94110CF8CF9CE0ED
:10191000980F953070F4845F990B21E030E001C09E
:10192000220F8A95EAF780916D02822B80936D02D7
:1019300008958D3F31F48091670281608093670242
:1019400008958E3F21F4809167028260F7CF8F3F28
:10195000B9F7809167028460F1CF80E00895F89430
:10196000E82FE295EF70F0E031A1282F2F7081E091
:1019700090E001C0880F2A95EAF7982F909593235D
:1019800091A392A1892B82A378940895909131021A
:1019900092FF06C0282F28712830F9F4877F8460D1
:1019A00093FF06C0282F28712831F1F4877E8461C7
:1019B0002091320220FF06C0382F38713830D9F418
:1019C000877F816021FF06C0282F28712831D1F43C
:1019D000877E816194FD877E0895282F24712430AD
:1019E000F9F68B7F8860DCCF282F2471243101F732
:1019F0008B7E8861DDCF382F3171313019F78E7FC2
:101A00008860E0CF282F2171213121F78E7E8861F7
:101A1000E1CFCF93DF93EC0182389105A9F1D8F59E
:101A20008133910509F496C048F58932910509F48E
:101A30008AC08A9709F495C0C11521E5D20708F03C
:101A4000BCC0C11530E5D30708F014C1C83ED105AC
:101A500008F09CC0C03ED10560F5C83AD10508F039
:101A600087C0C53AD10508F0FDC0C130D10509F1E4
:101A70002097F9F0C430D105E0F440C085339105DA
:101A800009F45AC0C997C1F680913102837089F078
:101A9000C0EED0E00EC0833E910599F170F4803E17
:101AA000910501F1823E910539F68091310282FD66
:101AB00021C0CE01DF91CF910895863E910561F15D
:101AC000873E910571F1843E910509F0B5CF809173
:101AD000320281FFEECF80913102C7EED0E084FD6B
:101AE0000DC0E7CF8091310280FD12C1909132028A
:101AF00090FFDFCFC3EED0E084FFDBCFD0E0C0E0CB
:101B0000D8CF8091310282FD06C19091320290FDC2
:101B1000BFCF84FFCECFF2CF8091310283FDDDCFE6
:101B2000C8CF8091310283FDF9C09091320291FFBC
:101B3000F0CFC4EED0E0BDCF8091310285FFB9CFA8
:101B4000C9E2D0E0B6CF8091310285FFB2CFC5E3C4
:101B5000D0E0AFCF8091310286FFABCFCAE2D0E0B8
:101B6000A8CF8091310286FFA4CFC1E3D0E0A1CFFE
:101B7000CF3BD10518F6C85AD0E0CC0FDD1FC65DAB
:101B8000DE4F0990D881C02DD46493CFC11540E2B7
:101B9000D40758F4C11581E0D80708F08ACFC03FB8
:101BA000D10508F4ABCFD06584CFC11590E4D90737
:101BB00008F4A4CFDF70D06A7CCFC11525E5D20729
:101BC00000F5C11534E5D30708F08AC0C11543E517
:101BD000D40708F071C0C11582E5D80708F467C0C2
:101BE000CE018370992721E030E002C0220F331F1D
:101BF0008A95E2F7C695C69580E2C89FE001112458
:101C000052C0C11599E5D907A8F4C11528E5D20736
:101C100008F06BC0C11536E5D30708F06FCF8C2FE5
:101C20000E94C60CC82FD0E0DC2FCC27CC27DF7158
:101C3000D0623FCFC1154AE5D40708F45BC0CE019E
:101C400090568115904208F059CF8D2F8F710E94C8
:101C5000C60C90E0982F882788279F719C012C2B19
:101C6000E901E6CFC55AD0E0C95DDE4FC881D0E0BA
:101C7000D0641FCFCE01E4E096958795EA95E1F711
:101C800083702C2F26952695237040E2249F900187
:101C90001124382B8C2F8370C1E0D0E002C0CC0F10
:101CA000DD1F8A95E2F7C22BD32BDC6802CFDC2F35
:101CB000CC27C16FD06AFDCECE018370992721E079
:101CC00030E002C0220F331F8A95E2F7C695C69511
:101CD00090E2C99FE0011124C22BD32BDA68E9CE30
:101CE000DC2FCC27C46FD06AE4CEDC2FCC27C06FAA
:101CF000D06ADFCE8C2F8F700E94C60C34E0D69550
:101D0000C7953A95E1F7CF709C2FEC01D069D1CE01
:101D1000C9E3D0E0CECEC2EED0E0CBCEC6EED0E06E
:101D2000C8CE8091270281111092270208958095D4
:101D300090912602982390932602089580911B0289
:101D40009091EA01981301C008958F5F8770FACFD0
:101D5000E92FEE0FE90FEE0F8E0F982F97708695F3
:101D60008695869523E0829FF0011124E852FE4F6C
:101D700050E040E080E0219130E0092E02C036952D
:101D800027950A94E2F721703327042E01C0220F11
:101D90000A94EAF7822B4F5F5F4F4330510559F7A2
:101DA0000895E92FEE0FE90FEE0F8E0F982F977021
:101DB00041E001C0440F9A95EAF78695869586958D
:101DC00093E0899FF0011124E852FE4F30E020E0BB
:101DD00070E05191DF011197CB01022E02C0969560
:101DE00087950A94E2F7817081958527842385275A
:101DF0008C932F5F3F4F2330310559F70895982F6B
:101E000092959F7011F0892F94E0282F26952695A2
:101E100011F09E5F822F869509F09F5F892F0895AC
:101E2000813019F4809888980895809AFCCFCF93D8
:101E3000C82FC17080FF07C081E00E94100F8C2F57
:101E4000CF910C94100F80E0F8CFCF92DF92EF92F9
:101E5000FF920F931F93CF93DF936C017B0164E696
:101E600070E088E70E944330EC0197FD12C010E05B
:101E700000E0F601E00FF11F849164E670E00E943B
:101E8000BD30EC01892B29F40F5F1F4F0E151F0584
:101E900081F70E944031CE01DF91CF911F910F91C8
:101EA000FF90EF90DF90CF9008958091C6029091BF
:101EB000C702911103C091E089270895882369F032
:101EC00062E070E08FE79AE00E94250F892B19F0FD
:101ED0008091C60208951092C6028091C602EBCF8F
:101EE000CF93C091C6028091C7028823D1F00E948F
:101EF0008F0A605A75418F4F9F4F6093C202709353
:101F0000C3028093C4029093C502C11108C062E06D
:101F100070E08DE79AE00E94250F892B29F0C0918F
:101F2000C6028C2FCF91089581E08093C602F7CF2F
:101F3000CF93DF93682F81E06A3019F06D3029F478
:101F400080E0DF91CF910C9419108091FA04909168
:101F5000FB0426E0FC01AEEEB2E001900D922A9562
:101F6000E1F7603E08F45AC026E0FC0111922A9580
:101F7000E9F7C091FA04D091FB0446E050E0BE01BD
:101F80008EEE92E00E94EA329E012A5F3240892B57
:101F900041F1C90145E0969587954A95E1F741E001
:101FA00050E0BA0102C0660F771F8A95E2F7CB01B5
:101FB0006091F8027091F902862B972BB9016B5F43
:101FC0007F4FE5E076956795EA95E1F702C0440F0B
:101FD000551F6A95E2F7842B952B9093F902809315
:101FE000F8022A5F3F4F4091ED02642F70E0C90173
:101FF0000E940632481B463010F4240F311D211573
:1020000072E0370710F030E020E026503D4F30936B
:10201000FB042093FA04DF91CF910895F6E06F9FBF
:10202000B00111246653744F46E050E00E94D43250
:10203000A0CFCF93382FE091FA04F091FB04EA5F30
:10204000F2402091ED02622F70E0CF010E94063233
:10205000281B822F332361F066E00E943C32C82F98
:10206000C15010F4CF91089580E20E94980FF8CFEC
:102070009F01280F311D2115324018F080E0F0E05B
:10208000E0E08E0F9F2F911D86509D4F9093FB0493
:102090008093FA04E7CF8091260290912502892B44
:1020A0008093C80190912702992391F0892B809306
:1020B000C80120E08AEC91E0FC013191CF0131119F
:1020C0002F5FF1E0803D9F07B9F721110E94910E2B
:1020D00048E050E06DE172E088EC91E00E94EA3265
:1020E000892BA9F088E0E8ECF1E0ADE1B2E00190E5
:1020F0000D928A95E1F7E091CA02F091CB023097F8
:1021000031F00280F381E02D88EC91E0099408958C
:10211000882321F00E94970E0C944B100895882379
:1021200039F090912602982B909326020C944B1034
:1021300008958093D3027093D5026093D402809166
:10214000E3028430F9F48093E9008FEF9091E80086
:10215000815095FD06C095ED9A95F1F7000081112B
:10216000F5CF8091E80085FF0DC050E040E063E0CE
:1021700070E083ED92E00E9451098091E8008E7733
:102180008093E8000895BC0184E00C949910BC0190
:1021900083E00C9499109C0184E08093E9009FEF08
:1021A0008091E800915085FD06C085ED8A95F1F794
:1021B00000009111F5CF8091E80085FF0CC050E040
:1021C00040E066E070E0C9010E9451098091E8009A
:1021D0008E778093E8000895CF93DF93EC0181E040
:1021E0008093E9008FEF9091E800815095FD06C043
:1021F00095ED9A95F1F700008111F5CF8091E800F7
:1022000085FF14C050E040E068E070E0CE010E941D
:1022100051098091E8008E778093E80088E0FE0104
:10222000A9EDB2E001900D928A95E1F7DF91CF918F
:10223000089581E08093E00080E28093D8001092BE
:10224000C9008FE19EE40197F1F700C0000087E02C
:1022500090EBDC018093400690934106A0934206E8
:10226000B093430688E19CE00FB6F894A89580935C
:1022700060000FBE90936000FFCF8091BD0280FD93
:102280000AC0EDE7F2E0118210821282339652E02A
:10229000E539F507C1F7269A35B13F7B25B12064B2
:1022A0004FB7F8948DE792E0FC015191CF0168E0BF
:1022B00025B9000000C057FF35B9550F000000C018
:1022C00000C000C035B900C06A9591F7F2E08539C9
:1022D0009F0751F74FBF8FE594E00197F1F700C0DA
:1022E00000000895EF92FF920F931F93CF93DF9317
:1022F0008C01CDE7D2E0F12CE12CF80194816091C2
:10230000BF028091BE02F4E0EF16F104FCF49923C1
:10231000F9F09E014091C0020E94020B2FEFE21AD9
:10232000F20A239688E0E816F10439F70E943D117D
:10233000F801848190E00196817099278483DF9170
:10234000CF911F910F91FF90EF900895992309F37A
:102350009E0140E0E1CF8F929F92AF92BF92CF92C9
:10236000DF92EF92FF920F931F93CF93DF93EC01D5
:102370004C81042F10E09801D8010E9471339B0119
:10238000AC010E945E334B015C01E0E2F0E0E01B37
:10239000F10BA5E5B0E0AC019B010E945E336B013F
:1023A0007C019F01DF010E9469329B01AC010E9408
:1023B00069339B01AC01280D391D4A1D5B1DC70106
:1023C000B6010E941A32F22E822F90E039E23F15B8
:1023D000D8F143E0249F9001112435952795122FC1
:1023E00010959DE7C92E92E0D92E00E085E5E82EF4
:1023F000EF188E2D01FD8F2D9601412F6091BF02A8
:102400000E94020B0F5F53E0C50ED11C083089F704
:102410000E943D119C8181E0992319F0903219F4BA
:102420008FEF8093250180912501890F8C83DF91A7
:10243000CF911F910F91FF90EF90DF90CF90BF90C1
:10244000AF909F908F90089525E530E0A901481B3B
:10245000590BCA019A01220F331F280F391F37FF6A
:10246000BCCF2F5F3F4FB9CF0F931F93CF93DF9315
:10247000CDE7D2E0FE01118210821282339682E013
:10248000E539F807C1F710E000E080917B02082EE3
:10249000000C990B081719078CF180912401082E64
:1024A000000C990B801791074CF19E014091C002DE
:1024B0006091BF028091BE020E94020B0F5F1F4F0E
:1024C00023960830110509F70E943D1180912301E0
:1024D00090917B02980F90937B0220912401280F0A
:1024E00020932401121614F497301CF081958093E8
:1024F0002301DF91CF911F910F91089519821882C6
:102500001A82DCCFCF92DF92EF92FF920F931F934C
:10251000CF93DF93FC018281DD24DA9480FD02C039
:10252000DD24D394CDE7D2E010E000E019821882D8
:102530001A8294E0E92EF12CC12C80917A028C0D44
:102540008930CCF18770082E000C990B8017910709
:1025500091F48091C0028E9DA0018F9D500D112499
:1025600055954795559547959E016091BF0280917D
:10257000BE020E94020BCD0CF1E0EF1AF108E9F661
:102580000F5F1F4F23960830110581F60E943D1101
:1025900080917A0291E0D91214C0811110C087E0B5
:1025A00080937A02DF91CF911F910F91FF90EF906E
:1025B000DF90CF90089587FFC6CF885FC4CF81504A
:1025C000EFCF90E0019687709927EACFEF92FF92C4
:1025D0001F93CF93DF93EC018DE7E82E82E0F82E76
:1025E00010E08C8197014091C0026091BF02810F81
:1025F0000E94020B115E83E0E80EF11C183F89F780
:102600000E943D119A818C8190FF08C08F5F8C835E
:10261000DF91CF911F91FF90EF9008958150F7CFF8
:102620009091BD0290FF0CC0EDE7F2E081836083E2
:102630004283339692E0E539F907C1F70C943D11D6
:1026400008950F931F93CF93DF9300D00F92CDB7D0
:10265000DEB78C0180917C0281110AC09E012F5F40
:102660003F4F4FEF6FEF0E94020B8A8180937C02F5
:10267000F8016481613069F080917C0240E066235A
:1026800061F040E0623011F440917C0280E060E053
:1026900004C060917C0240E080E00E941013F801C9
:1026A000848190E0019663E070E00E944832848368
:1026B0000F900F900F90DF91CF911F910F91089580
:1026C000CF93DF9300D00F92CDB7DEB79091BD02CC
:1026D00090FF0AC09E012F5F3F4F0E94020B4B816B
:1026E00069818A810E9410130F900F900F90DF91E3
:1026F000CF910895CF93DF93EC01EDEBF2E04381AE
:1027000062818C810E9460138C818F5F8C83DF914A
:10271000CF910895CF93DF93EC01EC81F0E0E35883
:10272000F64F4491EDEBF2E0628181810E946013EB
:102730008C818F5F8C83DF91CF910895EDEBF2E078
:1027400080818E7F8083109279022FEF80E792E064
:10275000215080409040E1F700C000000C943D11F2
:10276000CF93DF93C7E1D1E060E0CE010E940B334D
:102770002196C11584E0D807B9F7DF91CF9108956C
:102780006F927F928F929F92AF92BF92CF92DF9281
:10279000EF92FF920F931F93CF93DF9381E8C82EA0
:1027A0008AE0D82E9FE6E92EF12CE701EC9736015E
:1027B0001BC0F50185909490692DC8010E940B33D0
:1027C000682DC80101960E940B3382E0A80EB11C4F
:1027D0000E5F1F4FC017D10761F78CE0680E711CA8
:1027E0002C96CE15DF0529F08E010C5011095301EE
:1027F000E0CF7E018CE3E80EF11C8CE3C80ED11C07
:102800008FE5E81681E0F80681F6DF91CF911F9100
:102810000F91FF90EF90DF90CF90BF90AF909F907F
:102820008F907F906F900895CF93C82F6FEF811195
:1028300062E283E290E00E940B336FEFC11163E02C
:1028400084E290E00E940B336FEFC11166E285E2F3
:1028500090E0CF910C940B3380E00E94141460E060
:1028600086E290E00E940B330E94C0130E94B013D6
:1028700081E00C9414140F931F93CF93DF93C42F14
:10288000D0E0CC0FDD1F2CE0629FC00DD11D1124C4
:102890003CE3839FC00DD11D1124CE0187960E9479
:1028A000F732082F10E0102F0027CE0188960E94E3
:1028B000F7329801282BC901DF91CF911F910F9119
:1028C0000895462F843038F4753028F4663018F4B3
:1028D000672F0C943B1490E080E00895CF92DF9234
:1028E000FF920F931F93CF93DF936C010091F4023B
:1028F00080912802082BC7E0D0E010E0FC2EC80130
:102900000C2E02C0959587950A94E2F780FD0CC0C5
:102910002197A0F7F12C8F2DDF91CF911F910F916F
:10292000FF90DF90CF900895B6018C2F0E94611424
:102930000E94090D019761F3EECFCF93DF93EC0175
:102940000E946E14BE010E946114DF91CF910C941D
:10295000090DFC01808191810E949D1492959F70C8
:10296000963091F058F4925F9F70923058F4803F07
:1029700019F030F4883E30F481E008959A5FF4CF86
:10298000843FD1F380E00895883EB0F3813FD1F7D2
:10299000F3CF83E290E00E94F732823289F484E23E
:1029A00090E00E94F732833059F485E290E00E9473
:1029B000F73291E0863209F090E0892F8170089516
:1029C00080E0FCCFCF9384E090E00E94F732C82FE4
:1029D00082E290E00E94F732982F8C2FCF910895D9
:1029E0004F925F926F927F928F929F92AF92BF921F
:1029F000CF92DF92EF92FF920F931F93CF93DF93CB
:102A0000FC016280448081E08483EDE7F9E074900A
:102A1000ECEFF9E0E491C5E9D2E03DE7E32E32E0E6
:102A2000F32E4DEBC42E42E0D42E52E0A52EBB2453
:102A3000B39488248A94912C55245A94E7190E2F24
:102A400010E082E0861530F08091BE02888380918C
:102A5000BF028983411021C01B821A8297014A81DB
:102A6000698188810E94020B259683E0E80EF11CA3
:102A7000CC16DD0631F7DF91CF911F910F91FF90BA
:102A8000EF90DF90CF90BF90AF909F908F907F900E
:102A90006F905F904F900C943D118B818823E9F0EB
:102AA00081508B83859DC00111246C8170E00E9450
:102AB0000632FB01FF27E358F64F8491E82FE71910
:102AC000E59DC0011124B8010E9406328091C00228
:102AD000689FB00111247A83C1CF0E94C432209133
:102AE000C002269521582A9DA0012B9D500D11242E
:102AF000452F5527841795070CF0B0CF82E0861537
:102B000088F40E94C432B4010E94483288830E9433
:102B1000C4322091BF022695622F70E00E94483295
:102B2000280F29831A828091C002893C20F088EC0A
:102B30008C838B8393CF8431D8F784E1F9CFCF9204
:102B4000DF92EF92FF926B017C010E94F30AB701C2
:102B5000A60188E090E0FF90EF90DF90CF900C947A
:102B60001D337F928F929F92AF92BF92CF92DF924E
:102B7000EF92FF920F931F93CF93DF9300D00F92AA
:102B8000CDB7DEB7182FD62E042FC22E9091BD02DE
:102B900090FF29C0E92FE695AE2FB0E0A557BE4FB4
:102BA0008C91809378029E7F923071F59E012F5F09
:102BB0003F4F812F0E94020B4B8169818A810E94C5
:102BC00010131093BE02D092BF020093C002CC201B
:102BD00051F06091BD027091BE028091BF02909150
:102BE000C0020E949F150F900F900F90DF91CF9120
:102BF0001F910F91FF90EF90DF90CF90BF90AF901B
:102C00009F908F907F900895823019F40091C002B8
:102C1000D8CF863019F41091BE02D3CF8930D9F3C2
:102C2000893179F6E9512E2F2170722EE695F0E068
:102C3000E858F64F8590949099243DE7E32E32E0D2
:102C4000F32EB12CA12CC50123E0969587952A95EA
:102C5000E1F7711013C0810F9701402F6D2D0E9475
:102C6000020BA80CB91C83E0E80EF11C25E9E21662
:102C700022E0F20641F70E943D11A3CF212F281B2D
:102C8000822FEACFEDEBF2E0438121E1421B08F411
:102C900040E021E0628181810C94B115EDEBF2E01E
:102CA000438121E1420F08F44FEF21E062818181ED
:102CB0000C94B115EDEBF2E0628121E1621B08F4A6
:102CC00060E021E0438181810C94B115EDEBF2E0ED
:102CD000628121E1620F08F46FEF21E0438181817D
:102CE0000C94B115EDEBF2E0818121E0438162812A
:102CF00088500C94B115EDEBF2E0818121E0438125
:102D00006281885F0C94B1158091C102882319F00B
:102D100081508093C1026091BD027091BE0280918A
:102D2000BF029091C0020C949F158091C102833024
:102D300018F48F5F8093C1026091BD027091BE0252
:102D40008091BF029091C0020C949F15EDEBF2E0D0
:102D500083E0808311828FEF82838383148260817A
:102D60007181828193810C949F1590E080E00E9494
:102D70000533893E9E4F11F40C94C91480E00895E8
:102D800060E078E582E090E00E944431E8EDF0E018
:102D900080818061808385E38A95F1F700008091CE
:102DA000D90081708093040108951F920F920FB68D
:102DB0000F9211242F933F934F935F936F937F93C1
:102DC0008F939F93AF93BF93EF93FF938091E10015
:102DD00082FF09C08091E20082FF05C08091E1007E
:102DE0008B7F8093E1008091DA0080FF24C0809186
:102DF000D80080FF20C08091DA008E7F8093DA00B7
:102E00008091D90080FF9DC080E189BD82E189BDAC
:102E100009B400FEFDCF81E08093E3028091D602E9
:102E2000811109C00E9401090E94CC098091E20031
:102E300084608093E2008091E10080FF17C0809160
:102E4000E20080FF13C08091E2008E7F8093E20059
:102E50008091E20080618093E2008091D8008062DE
:102E60008093D80019BC85E08093E3028091E10053
:102E700084FF2BC08091E20084FF27C080E189BDE0
:102E800082E189BD89B5982F917080FFFBCF809139
:102E9000D8008F7D8093D8008091E1008F7E809351
:102EA000E1008091E2008F7E8093E2008091E20059
:102EB00081608093E2008091E402882309F447C096
:102EC00084E08093E3028091E3028091E10083FF3C
:102ED00027C08091E20083FF23C08091E100877FBB
:102EE0008093E10082E08093E3021092E4028091FB
:102EF000E1008E7F8093E1008091E2008E7F8093DD
:102F0000E2008091E20080618093E20042E060E0B4
:102F100080E00E949A098091F00088608093F00020
:102F2000FF91EF91BF91AF919F918F917F916F91A1
:102F30005F914F913F912F910F900FBE0F901F9077
:102F4000189519BC1092E3021092D60274CF8091AA
:102F5000E30087FD93E09093E302B5CF78941F924E
:102F60001FB61F9211248F939F93AF93BF938091AD
:102F7000CF029091D002A091D102B091D2020196DD
:102F8000A11DB11D8093CF029093D002A093D102D6
:102F9000B093D202BF91AF919F918F911F901FBEAE
:102FA0001F9018959C014FB7F8948091CF02909193
:102FB000D002A091D102B091D2024FBF821B930BDD
:102FC00008952FB7F8948091CF029091D002A091EC
:102FD000D102B091D2022FBF08959091BD0290FF0F
:102FE0003DC09170811129C092609093BD0266230B
:102FF00051F06091BD027091BE028091BF0290912C
:10300000C0020E949F156091BD02669570E04BE082
:1030100050E088E191E00E94DD32892BA9F0109206
:10302000790281E08093750220E04091C0026091B6
:10303000BF028091BE020C94B1158B3210F09465E2
:10304000D4CF880F982BD1CF81E0809379020E9452
:10305000E1179093730280937202E3CF0895EDEB32
:10306000F2E080818160808360E086950C94ED17AA
:1030700061E00C94ED1769EE7EEF90E080E00E9435
:10308000293360E082E090E00E940B3360E083E04F
:1030900090E00E940B331092280260E084E090E000
:1030A0000E940B3360E082E290E00E940B3360E00C
:1030B00085E090E00E940B3360E086E090E00E94A3
:1030C0000B336FEF87E090E00E940B3340E050E05D
:1030D000BA0188E090E00E941D3360E08DE090E04E
:1030E0000E940B3340E050E0BA0188E190E00E947A
:1030F0001D3360E087E190E00E940B3340E050E038
:10310000BA018CE190E00E941D3370E060E080E243
:1031100090E00E94293340E050E0BA0188E190E05D
:103120000E941D3380E00E9414140E942C1440E081
:1031300050E0BA018FE090E00E941D33EDEBF2E029
:1031400080818160808386950E94381821E04FEF4E
:103150006FEF8BEE0E94B11582E20C9438188091CB
:10316000BD028695815009F48AE261E00C94ED1766
:103170008091BD0286958F5F8B3208F081E061E01F
:103180000C94ED179091BD0290FF07C0969598178B
:1031900020F0961710F40C94B8180C9438180F936C
:1031A0001F93CF93C82F482F50E070E060E0DB0101
:1031B000CA01F4E0B695A79597958795FA95D1F74A
:1031C0000097A105B10591F1AC01BD0184E08A0130
:1031D0009B01E2E03695279517950795EA95D1F77B
:1031E000011511052105310519F08E5FB901A801FE
:1031F0007695679557954795452B462B472B09F0B4
:103200008F5F8130A9F08230F1F00E942F1820E00A
:103210004BED65E98CEB0E94B11560E081E20E9404
:10322000ED178C2FCF911F910F91089580E0CFCF94
:103230000E942F1820E04FEF6FEF8AE00E94B11537
:1032400060E081E0ECCF88E090E00E94FF3260FF18
:1032500009C020E04FEF6FEF8BEE0E94B11560E0E8
:1032600082E2DDCF0E949E13DCCF0E94E1179C0119
:1032700090916E0280916F02982B21F030936B0237
:1032800020936A029091700280917102982B21F034
:103290003093690220936802E091CA02F091CB0258
:1032A000309749F082E080936C020480F581E02D34
:1032B0008CE692E00994089590E080E00E94CB0AA9
:1032C00090E080E00E94B50A109225020E944B1007
:1032D00086E0ECE6F2E0DF011D928A95E9F71092B4
:1032E000660210926502109267020C9435190E94D2
:1032F000CF188093F4020C945C198091F402982FFB
:103300009670963019F488600C947719877FFCCFFB
:1033100021E030E001C0220F8A95EAF720958091E4
:10332000F40282230C94771990911C0280958923D2
:1033300080931C02282F277091F4282F082E000C50
:10334000330B9217130659F09091320292FD07C089
:103350008595859585950E94881910921C0208957F
:10336000CF93C0913202C2FB992790F9981799F038
:1033700080FBC2F9C09332026091310284E090E098
:103380000E940B336C2F82E290E00E940B3382E0AC
:10339000CF910C949419CF91089521E030E001C0B1
:1033A000220F8A95EAF78091F402822B0C94771908
:1033B000809328020C945C1910922602EAECF1E04A
:1033C00086E0DF011D928A95E9F70C945C191F9342
:1033D000CF93DF93CDB7DEB7AA970FB6F894DEBFD1
:1033E0000FBECDBF85EE92E02091F100DC012D9360
:1033F000CD01B2E08D3E9B07B9F78091E6028330A4
:1034000009F472C0B8F4813009F449C0823009F47B
:10341000B3C08091E80083FF8BC28091E502909158
:10342000E6029A3008F084C2E92FF0E0EE57FC4C37
:103430000C945C328A3009F48EC08B3009F471C070
:10344000893039F78091E502813219F78091E902DC
:103450009091EA02009711F00297D9F68091E80066
:10346000877F8093E8008091E80082FF38C09091C8
:10347000F3008091F200029731F48091F1008130E5
:1034800011F0863021F48091F1008093D802809170
:10349000E8008B778093E8000E947B09BACF809187
:1034A000E502813A09F0B5CF8091E800877F8093EB
:1034B000E8008091E9029091EA02892B61F468E0CA
:1034C00089ED92E070E00E942D0A8091E8008B77F0
:1034D0008093E8009ECF60E090E080E0F3CF8091A1
:1034E000E3028111C0CF95CF8091E502813A09F0C6
:1034F00090CF8091E9029091EA02892B09F089CF5F
:103500008091E800877F8093E8008091E80080FF49
:10351000FCCF809126018093F1008091E8008E77A6
:10352000B9CF8091E502813209F073CF8091E90231
:103530009091EA02892B09F06CCF8091E800877F97
:103540008093E8000E947B098091E7028093260126
:103550000E94DC195ECF8091E502813209F059CFDB
:103560008091E800877F8093E8000E947B0980912A
:10357000E8028093D7024DCF8091E502813A09F0AD
:1035800048CF8091E800877F8093E8008091E80031
:1035900080FFFCCF8091D702BECF803899F082386F
:1035A00009F0C6C18091E9028F70873008F0C0C170
:1035B0008093E9008091EB0085FB882780F91092C9
:1035C000E90006C08091E1029091E20291118260CF
:1035D0009091E800977F9093E8008093F10010921B
:1035E000F1008091E8008E779FC1882309F48DC196
:1035F000823009F09DC18091E702811190C18091D4
:10360000E9028F702FEF280F263008F091C18093C8
:10361000E9002091EB0020FF82C1933031F48091CA
:10362000EB0080628093EB007AC19091EB00906197
:103630009093EB0021E030E001C0220F8A95EAF779
:103640002093EA001092EA008091EB008860EACFB4
:1036500081116EC11091E7021F778091E30080789D
:10366000812B8093E3008091E800877F8093E800BE
:103670000E947B098091E80080FFFCCF8091E300ED
:1036800080688093E30082E0111183E08093E3027D
:103690004FC18058823008F04BC12091E702309131
:1036A000E8022C3DE3E03E07A1F583E08A838AE24D
:1036B00089834FB7F894DE01139620E03EE051E293
:1036C000E32FF0E050935700E49120FF03C0E29510
:1036D000EF703F5FEF708E2F90E0EA30C0F0C7963A
:1036E0008D939D932F5F243159F74FBF8091E80050
:1036F000877F8093E8006AE270E0CE0101960E9425
:103700002D0A8091E8008B778093E80011C1C09664
:10371000E7CF8091E9029091EA02432F5527433089
:10372000510509F44AC078F54130510509F47AC0D1
:103730008BE590E0E5E3FBE04230510509F0F8C08D
:103740002091E800277F2093E8002091EB02309140
:10375000EC028217930708F49C0140E02115310523
:1037600009F065C0411163C08091E80082FDC9CFB6
:103770008091E302882329F2853019F28091E800D4
:1037800083FFF2CFBECF4132510509F43CC0423233
:10379000510509F0CDC08330910508F0C9C0FC0186
:1037A000EE0FFF1FE754FE4F0190F081E02D8A5489
:1037B0009E4FDC018C9190E01AC0332721303105F7
:1037C000D1F02115310561F02230310509F0B0C08A
:1037D000E2EAFBE0E4918E2F90E0E2EAFBE007C032
:1037E000E6ECFBE0E4918E2F90E0E6ECFBE0009746
:1037F00009F49EC0A5CFE2EBFBE0E4918E2F90E0B0
:10380000E2EBFBE0F4CF8330910508F091C0880F24
:10381000991FFC01E154FE4F0190F081E02D89E0F9
:1038200090E08ECF82E190E0E0E9FBE089CF8091EB
:10383000E302882309F465CF853009F462CF8091D3
:10384000E80083FD5ECF8091E80082FD8DCF8091FE
:10385000E80080FF83CF9091F3008091F200211562
:10386000310519F08830910550F041E0089709F0D2
:1038700040E08091E8008E778093E8006FCF44911C
:103880004093F1003196215031090196E8CF8038FC
:1038900009F04EC08091E800877F8093E800809116
:1038A000E4028093F1009DCE811142C01091E702A5
:1038B0001230F0F58091E800877F8093E800109344
:1038C000E4020E947B09112311F084E005C080917D
:1038D000E30087FDFACF81E08093E30242E061ECF0
:1038E00081E00E949A0942E261EC84E00E949A0918
:1038F00042E261EC82E00E949A0942E260EC83E0DD
:103900000E949A098091E30213C08091E7028130FE
:1039100079F481E0933009F080E08093E202109224
:10392000E9008091E800877F8093E8000E947B098E
:103930008091E80083FF0AC08091E800877F809330
:10394000E8008091EB0080628093EB00AA960FB6AE
:10395000F894DEBF0FBECDBFDF91CF911F910895C8
:103960001F920F920FB60F9211242F933F934F93F4
:103970005F936F937F938F939F93AF93BF93CF93F7
:10398000DF93EF93FF93D091E900DF708091EC001B
:10399000C82FC17080FDC0E81092E9008091F0004E
:1039A000877F8093F00078940E94E7191092E900D5
:1039B0008091F00088608093F000CD2BCF70C09391
:1039C000E900FF91EF91DF91CF91BF91AF919F916E
:1039D0008F917F916F915F914F913F912F910F90B8
:1039E0000FBE0F901F9018958823B1F19CEF980F90
:1039F000913A70F4EAECF1E09191891303C0DF0190
:103A000011971C9291E0E03DF907B1F70C944B102F
:103A100090E2980F983050F4877091E001C0990FB0
:103A20008A95EAF7892F0E94970EF0CF9BE5980FB1
:103A3000933020F490E080E00C94CB0A98E5980F46
:103A4000973120F490E080E00C94B50A803F20F09C
:103A50000E94980B0C9435190895CF93C82F882392
:103A600009F456C08CEF8C0F813AF8F4EAECF1E0DF
:103A700080ED91E0DF012D91C21759F08A179B0765
:103A8000D1F76C2F88EC91E00E949B0ACF910C94A7
:103A90004B102191C21303C0DF0111971C928E17A6
:103AA0009F07B9F70E944B10ECCF80E28C0F883053
:103AB00068F4C77021E030E001C0220FCA95EAF730
:103AC00080912602822B80932602E0CFEBE5EC0F5B
:103AD000E33040F4F0E0E95DFE4F808190E0CF916B
:103AE0000C94CB0AE8E5EC0FE73150F4F0E0EE0F70
:103AF000FF1FE65DFE4F80819181CF910C94B50A46
:103B0000C03F30F08C2F0E94530CCF910C9435198C
:103B1000CF9108951F93CF93DF93182FD0E0C0E08B
:103B2000893311F4C0E5D0E0812F0E942D1D20972C
:103B300031F4812FDF91CF911F910C94F41C8FE908
:103B40009FE00197F1F700C000002197F0CF0F939D
:103B50001F93CF93DF93C62FD42F022FFC018281B6
:103B60008823A1F06093F7020E94E1179093F60278
:103B70008093F502C77081E001C0880FCA95EAF70B
:103B8000DF91CF911F910F910C948F108091F702CC
:103B9000681335C08091F5029091F6020E94D21709
:103BA000883C910560F510E21D0FCD17B9F080E259
:103BB0008C0F883040F4C77081E001C0880FCA952F
:103BC000EAF70E948810183048F481E09D2F977022
:103BD00001C0880F9A95EAF70E948F10802F0E94EB
:103BE0008A1D183098F4D77081E001C0880FDA95EB
:103BF000EAF7DF91CF911F910F910C948810C77055
:103C000081E001C0880FCA95EAF7F3CFDF91CF9129
:103C10001F910F910895CF93DF930E94AB318111D3
:103C200003C0DF91CF910895C091D001D0E00E94F0
:103C30008331CF52DE4F88838091D001811108C03B
:103C40009091D101993649F78F5F8093D001E5CFEC
:103C50008430D1F730E020E081ED91E0FC0141912A
:103C6000CF01240F311DF1E0853D9F07B9F7809109
:103C7000D101893691F48091D50182130EC08091D3
:103C8000D2019091D3018F3E2FEF920730F4209113
:103C9000D401222329F00E942D1D1092D001BDCF06
:103CA0000E94F41CFACF3F924F925F926F927F92E4
:103CB0008F929F92AF92BF92CF92DF92EF92FF923C
:103CC0000F931F93CF93DF9300D000D00F92CDB707
:103CD000DEB78C01FC0183819481892B31F08081D6
:103CE000918189238F3F09F0C9C50F900F900F90E4
:103CF0000F900F90DF91CF911F910F91FF90EF9058
:103D0000DF90CF90BF90AF909F908F907F906F90FB
:103D10005F904F903F9008950E946E14F82E682F88
:103D200089819A810E94D10E69817A818F2D0E94AA
:103D300061147C01F8018281882309F491C59701FF
:103D400022513F452031310508F02CC58FEF93E01B
:103D50000E94F732FEEEEF0E57E1852E99249394E0
:103D60008823A1F180911C02877009F4BECFF8016D
:103D70008281882309F4B9CF8091320282FDB5CFC8
:103D800082E00F900F900F900F900F90DF91CF91E6
:103D90001F910F91FF90EF90DF90CF90BF90AF9069
:103DA0009F908F907F906F905F904F903F900C947A
:103DB0009419811424E09206A9F2C4010E94F732FA
:103DC000811101C0EA943FEF831A930AE110F1CF09
:103DD0001C821B82442443944AE0342E74014FEF2A
:103DE000E41AF40AC4010E94F73289831A828823F4
:103DF00009F4B8CF9FEF980F933000F58A8349827A
:103E000082E0880E911CC7010E94F7328B838823C1
:103E100009F4A8CFFE0131967F01F701208122230A
:103E2000E9F2213009F049C091818281913041F459
:103E3000F2E0EF0EF11C0E948A1D09C04701EACF93
:103E4000923049F422E0E20EF11C0E942D1D3FEF5A
:103E5000E31AF30AE2CF933031F432E0E30EF11CBF
:103E60000E94F41CF4CF943021F04FEFE41AF40ACE
:103E7000EECF92E0E90EF11C30E020E0B7016F5F79
:103E80007F4FF70141818053990B8A30910550F0A3
:103E900021503109E0F28FE99FE00197F1F700C06E
:103EA0000000F6CF329EF001339EF00D11249C01EC
:103EB0002E0F3F1F842F7B01E1CFE22FF0E0E7546C
:103EC000FE4F5490822F86958695869590E0FC0152
:103ED000E755FE4F64902770712C022E02C0759436
:103EE00067940A94E2F7E1E06E227724FC01E7563A
:103EF000FE4FA490B12C022E02C0B594A7940A9450
:103F0000E2F7F1E0AF22BB24FC01E757FE4FC4907B
:103F1000D12C02C0D594C7942A95E2F721E0C222A1
:103F2000DD246114710419F081EE0E942D1DA1148D
:103F3000B10419F086EE0E942D1D852D0E948A1D68
:103F4000AB2819F086EE0E94F41C672819F081EE68
:103F50000E94F41CCD2809F47ACF8CE26CCF81E06A
:103F60000E94CD190E947D19FDCE81E00E94881922
:103F7000F9CF82E0F5CFF3EFEF16FCE5FF0609F489
:103F800084C0C0F438EDE3163CE5F30609F479C0CB
:103F900049EDE4164CE5F40609F483C087EDE81614
:103FA0008CE5F806B9F426E241EE61EEC8010E9404
:103FB000A71DD8CE95EFE9169CE5F90609F46DC06A
:103FC00008F467C027E245EE66EEF6EFEF16FCE573
:103FD000FF0661F3F8018281882309F460C410921E
:103FE000F702F3E0EF16FDE5FF0608F05DC02AEFEB
:103FF000E2162CE5F20630F4C70182509C45449746
:1040000008F05EC00E94E214909332028093310265
:1040100081E1E8168CE5F80609F438C108F0ADC076
:10402000E9E0EE16ECE5FE0609F41EC108F076C0E4
:1040300025E0E2162CE5F20609F40EC108F058C09E
:1040400043E0E4164CE5F40609F4FCC008F000C1B6
:1040500080913102816092E0E9169CE5F90609F44D
:10406000F4C060913102F090320284E090E00E944E
:104070000B336F2D82E290E00E940B330E94DC191B
:1040800071CE27E245EE65EE91CF26E241EE60EE7D
:104090008DCF27E245EE64EE89CF26E241EE62EE57
:1040A00085CF28E241E0EFCF31E6E3163DE5F306A8
:1040B00009F4A8CF45EAE4164DE5F40609F4A2CFC9
:1040C00036E1E3163CE5F30609F002C480912602CE
:1040D0008A7A91E009F490E09093D70169E2811126
:1040E00065E388EC91E00E949B0A0E944B103ACE57
:1040F000809131028062E7E0EE16ECE5FE0609F4FD
:10410000A4C0809131028061F8E0EF16FCE5FF0663
:1041100008F49BC080913102806497C08091310285
:104120008B7F2DE0E2162CE5F20609F48EC078F4C0
:10413000809131028E7F4BE0E4164CE5F40609F4E1
:1041400084C008F497C0809131028D7F7EC0809139
:1041500031028F7E9FE0E9169CE5F90609F475C0EF
:1041600080913102877FE0E1EE16ECE5FE0608F46F
:104170006CC0809131028F7D68C0FDEFEF16FCE5C9
:10418000FF0609F47FC060F535E1E3163CE5F30670
:1041900009F48EC088F483E1E8168CE5F80609F48A
:1041A0007FC008F477C00E94DC1990913102892FFA
:1041B00097FB87F9805849C0EBEFEE16ECE5FE0659
:1041C00009F44EC008F05AC08091320281602AEF93
:1041D000E2162CE5F20609F044CF8093320241CF7B
:1041E00031E0E3163DE5F30609F46EC0B8F48FEF55
:1041F000E8168CE5F80609F457C080913202836016
:10420000E1149DE5F90648F380913202982F9095CC
:1042100091708E7F892B90FB81F9DFCFE1E6EE165E
:10422000EDE5FE0609F456C0F5EAEF16FDE5FF06DA
:1042300009F457C022E0E2162DE5F20609F011CF8D
:1042400060E043C08091310282608093310209CFE7
:10425000809131028460F9CF809131028860F5CF7E
:10426000809132028260B9CF0E94DC1980913102C4
:104270008068EBCF809131028C60E7CF8091320271
:104280008E7FABCF809132028D7FA7CF809131029C
:104290008F7BDBCF0E94DC19809131028F77D5CFE5
:1042A00080913102837FD1CF809132028C7F95CF74
:1042B0008091310282FB992790F921E0922790FBAF
:1042C00082F990FB83F9C1CF61E08EE090E00E941B
:1042D0000B33C7CE90913102892F8F7E94FF80617E
:1042E000B4CF90913102892F8E7F90FF8160ADCF46
:1042F00085E3E0C281608093BD0286950E943818F4
:1043000031CD4FEA58E168EB78E10E94ED0A2ACD01
:1043100048EB58E16FEA78E1F8CF4BE756E162E706
:1043200076E1F3CF4AE556E166E676E1EECF42E488
:1043300056E16EE476E1E9CF4EE456E162E476E1DF
:10434000E4CF45E956E164E876E1DFCF81E0D6CFFE
:1043500065E082E00E94C21805CD68E086E0FACFF1
:1043600064E18FE0F7CF67E185E1F4CF62E289E1B4
:10437000F1CF83E2C3CF0E94DC19EFEFF4E32CE02E
:10438000E150F0402040E1F700C0000067C281E04A
:10439000C5C280E0C3C2C7010E94A80ED82ECFC2FA
:1043A0002F2D2F70C22E8F2D807F19F0C29490EF89
:1043B000C922DD20B9F0CC2069F080E28E0D883072
:1043C00010F0811009C080912602C82AC0922602EE
:1043D0000E944B108E2D4DC080912502C82AC0929C
:1043E0002502F6CF8E2D0E94F41CCC2009F443C088
:1043F00080E28E0D883010F0811004C08C2D0E9458
:10440000970E06C0C09480912502C822C092250252
:104410000E944B1030C03F2D3F70C32E8F2D807FE8
:10442000803219F0C29480EFC822882089F041E0E0
:10443000841609F480C0DD2009F48AC0BB2009F489
:1044400080C0F801858180FFC5CF8F70858379C0DA
:104450002091320222FF4CC0DD2009F443C0CC2061
:1044600039F080912602C82AC09226020E944B1081
:1044700080E00E942D1DE92DE850FF0B349720F4B9
:104480000E94E10A0E94170FAA2009F42ECC809105
:104490001C0280FD2ACCF8011282859585958595B0
:1044A0000E94CD19C8010E94531E80911C0285955F
:1044B000859585950F900F900F900F900F90DF913D
:1044C000CF911F910F91FF90EF90DF90CF90BF9011
:1044D000AF909F908F907F906F905F904F903F90A4
:1044E0000C94881980E00E94F41CCC2021F286CF25
:1044F000DD20A1F0909127028C2D892BB11003C0F3
:104500000E948F10B8CFE1E0BE12FACF22FDB3CFE8
:10451000981709F4B0CF80932702ADCFB11006C031
:104520000E94910E8C2D0E948810A5CFF1E0BF163D
:1045300009F4A1CFF5CFDD2031F025E02B1508F4EB
:104540009ACF8C2DDDCF34E03B1508F494CFEACF21
:10455000BB2041F3F9E38F121EC12FEF37EE43E08A
:10456000215030404040E1F700C0000014C18F2DC1
:1045700086958695837061F0813009F07CCFC70104
:104580009370D11002C090E080E00E94B50A73CF12
:10459000C7019370D11002C090E080E00E94CB0A66
:1045A0006ACF8E2DDD2029F00E94530C0E94351910
:1045B00062CF0E94980BFACF8F2D837091F5D110A6
:1045C0005ACF4E2D429546954770440F440F8E2D7D
:1045D0008F70042E01C0880F0A94EAF72E2D2071E7
:1045E000E4FE07C02FE030E001C0220F4A95EAF751
:1045F00020953F2D369536953370323069F050F462
:1046000040912802313029F0822B84230E94D8194E
:1046100032CF842B822BFACF282B8091280282273D
:10462000F5CF8695DD2011F08F2D8170882309F458
:1046300022CF4E2D429546954770440F440F8E2D44
:104640008F70042E01C0880F0A94EAF72E2D207176
:10465000E4FE07C02FE030E001C0220F4A95EAF7E0
:1046600020953F2D369536953370323069F050F4F1
:104670004091F402313029F0822B84230E94771973
:10468000FACE842B822BFACF282B8091F40282273A
:10469000F5CF8F2D8F70F82EDD2021F00E94CD19DF
:1046A0008E2D2ECF8E2D0E9488108F2D0E9488195E
:1046B000E2CE8E2D92EF8916B1F1981570F0E0EFF1
:1046C0008E16D1F0F1EF8F1691F0DD2009F45EC067
:1046D000B11080CE8F2D8F712AC023EF821651F139
:1046E00034EF8312F2CF8091320282FF2FC08F2DE0
:1046F0008F71DD20D9F21BC0DD2081F044E04B1525
:1047000008F4B9CE2F2D2F7181E090E001C0880F01
:104710002A95EAF79091F4028927B0CF85E08B15AE
:1047200008F4A9CEEFCF8F2D8F71D110BFCF0E948B
:10473000CD19A1CE80E0DD2009F4A0CF9F2D9F717F
:1047400081E001C0880F9A95EAF798CFDD2099F0B3
:104750009F2D9F71F92E892F0E94CD1980913202D1
:1047600082FD07C0E8E0FE9EC001112483608093B3
:104770001C028F2DDCCF81E00E949419F1E0FB1523
:1047800008F079CE82E00E94941975CEBB2039F0F2
:10479000893309F4E2CE8E2D0E94F41C6CCE8F2D4D
:1047A0008F7184CFF0E1EF16FFE5FF0609F4D7CB58
:1047B00021E1E2162FE5F20609F4DBCB909104012A
:1047C000911129C09701215031092E3F310528F060
:1047D0004FEEE4164FEFF406F0F099E69093D10116
:1047E000F092D301E092D2018093D40130E020E036
:1047F00081ED91E0FC014191CF01240F311DF1E0E9
:10480000853D9F07B9F72093D50165E070E081ED04
:1048100091E00E9497318091D60181110EC0F8017C
:104820008281882351F00E94E10A80FD03C083E564
:104830000E942D1D81E08093D601E114FCE5FF0666
:1048400009F099CBF8018281882309F48BCA81E0B1
:104850000E94100F0E949E130E94550F0E94191172
:1048600030E1E3163FE5F30609F47FCB41E1E416BE
:104870004FE5F40609F0A2CF82E078CB85E0DE01B7
:10488000119601900D928A95E1F7F80122818981B4
:104890009A81211141CA0E94A80EF82E45CAF6E15C
:1048A000EF16FCE5FF0609F083C08091D701811166
:1048B0001FCD89E2EAECF1E020ED31E0919189131E
:1048C00003C0DF0111971C922E173F07B9F70DCCDB
:1048D0002AE5E2162DE5F20609F459CD68F4E11453
:1048E0004CE5F40609F447CD8EEDE8168CE5F806A4
:1048F000B9F40E943B1836CA9BE5E9169DE5F90616
:1049000009F447CDECE5EE16EDE5FE0649F480919D
:10491000320282FB882780F991E089270E94B01932
:10492000F8018281E080F180882309F434CDC70149
:104930000E946E14D82E682FC7010E94D10EB701B5
:104940008D2D0E9461140E94090D7C01882EF801B2
:10495000D280B580B2943FE0B32280911C02877070
:10496000C1F0AD2CDD20B1F08F2D807F803421F09F
:1049700080E28E0D883068F08091320282FD09C09D
:1049800082E00E94941980911C028770AA24A3944B
:104990008111A12C9F2C92942FE09222FBE0F9151B
:1049A00008F469CDE92DF0E0E457FC4C0C945C323E
:1049B000809126028272FCECEF16FCE5FF0609F4FA
:1049C000C0CC08F06DC036ECE3163CE5F30609F404
:1049D000A4CCE8F593ECE9169CE5F90609F491CC32
:1049E00028F5F2ECEF16FCE5FF0609F099CF80916F
:1049F000BD0280FF7FCC8E7F8093BD026091BD029F
:104A00007091BE028091BF029091C0020E949F15DA
:104A1000109279024FEF80E792E041508040904041
:104A2000E1F700C000000E943D119CC924ECE21691
:104A30002CE5F20609F46CCC42E756E16BE776E12F
:104A400035ECE3163CE5F30609F45FCC69CF49EC9D
:104A5000E4164CE5F40609F46ACC88F4E7ECEE16AB
:104A6000ECE5FE0609F45ECC46E656E16AE576E141
:104A7000F8ECEF16FCE5FF0609F447CC51CF2AEC21
:104A8000E2162CE5F20609F457CC44E856E165E954
:104A900076E13BECE3163CE5F30609F436CC40CF77
:104AA00041EDE4164CE5F40609F45ACCB8F49EEC5A
:104AB000E9169CE5F90609F44BCC08F447CCFFEC69
:104AC000EF16FCE5FF0609F448CC6EE089E020ED26
:104AD000E2162CE5F20609F43DCC22CF34EDE316C4
:104AE0003CE5F30609F442CC70F482EDE8168CE55F
:104AF000F80609F438CC88E193EDE9169CE5F9064F
:104B000009F4FCCB0DCFE5EDEE16ECE5FE0609F45D
:104B100030CC6AE285E2FDE5EF16FF0609F41ACC17
:104B2000FFCE1F93CF93DF938091E901807FA9F49B
:104B30008091E601882389F080911B02D091EA01DF
:104B40006091E4017091E501A091E701B091E80165
:104B5000C62FC72316E0D81304C0DF91CF911F9151
:104B6000089590E0109711F0CF3F19F401968770E7
:104B7000F2CF189F9001199F300D1124F901E551D2
:104B8000FE4F41814713F2CF40814613EFCF428160
:104B90004111ECCF438154814A1B5B0B483C5105CA
:104BA00028F78091E9018F7080618093E901F90114
:104BB000E051FE4F80818F708061808384EE91E0B0
:104BC0000E94531EDF91CF911F910C949E0EAF92C5
:104BD000BF92CF92DF92EF92FF920F931F93CF93EA
:104BE000DF93CDB7DEB761970FB6F894DEBF0FBE87
:104BF000CDBF8C0185E0F801DE011D9601900D927C
:104C00008A95E1F7F801E28084EEA82E81E0B82EC3
:104C10006091E7017091E8016115710509F432C1F5
:104C20009091E4014091E501892F84238F3F09F49D
:104C300029C120813181C380D480F090E601F60142
:104C4000E61BF70BFF2009F4E8C08091E901582F1B
:104C5000507FE83CF10508F0ABC0511177C0FE2C45
:104C6000431321C092131FC0E1101DC08F708061DB
:104C70008093E901C5010E94531E8091E901F8016A
:104C800085838F2D61960FB6F894DEBF0FBECDBF22
:104C9000DF91CF911F910F91FF90EF90DF90CF9018
:104CA000BF90AF900895CD2829F0822F83238F3FA6
:104CB00009F003C180E0F82FF170DF2E80FF3CC0C7
:104CC00080911B024091EA0156E0841315C02D87A4
:104CD0003E878D859E850E949D14292F22952F70D9
:104CE0002230F0F0243018F59F70F1F0F801958132
:104CF000907FD1F4D12C1EC090E0589FF001599FB5
:104D0000F00D1124E551FE4F6181361306C060811C
:104D1000261303C06281E6120FC001968770D5CFBB
:104D20009F7011F0882331F3805E883018F3C8013A
:104D30000E94531EFD2CA5CFEE2009F4A2CF809136
:104D4000E90181608093E901F12C9BCF431306C0F8
:104D5000921304C0F801EE2009F479C0C8010E9442
:104D6000A914882309F1EE20F9F08091E90180323D
:104D700070F02091E4013091E50138872F83198686
:104D8000DB86CA868C87CE0107960E94531E86E07A
:104D9000F801A4EEB1E001900D928A95E1F70E942E
:104DA0009125FF24F3946DCFC8010E94531EF9CFC3
:104DB00051110AC084EE91E00E94531E86E0F50175
:104DC00011928A95E9F7C0CF43130FC092130DC01B
:104DD000E1100BC0F8018583C8010E94531E86E0D4
:104DE000F50111928A95E9F74CCFC8010E94A914E8
:104DF0008823D1F2EE20C1F28091E901803238F2AD
:104E00002091E4013091E5013A8329831B82DD8200
:104E1000CC828E83CE010196B8CFE83CF105F8F63E
:104E2000FE2CEE2009F243131FC092131DC0809187
:104E3000E90180FD10C0982F907F69F0F80185830B
:104E4000903F31F0982F907F905F8F70892B8583F2
:104E5000C8010E94531E86E0F801A4EEB1E0019063
:104E60000D928A95E1F70DCFC8010E94A914811116
:104E70008ECF8091E90181608093E901C8010E9491
:104E8000531EFFCEEE2009F48FCFC8010E94A91453
:104E9000F82E882309F488CF86E0F801A4EEB1E06B
:104EA00001900D928A95E1F78091E4019091E501DE
:104EB0000E949D140E949125E4CE81E08E25FBCEB8
:104EC0001F93CF93DF93CDB7DEB767970FB6F894F4
:104ED000DEBF0FBECDBF4B8B5C8B6D8B7E8B8F8B04
:104EE0006111109225021A8A198A85E0FE017396D3
:104EF000DE011D9601900D928A95E1F786E0FE0194
:104F00003D96DE01179601900D928A95E1F7CE014C
:104F100007960E94E725882389F016E080911B02FE
:104F20009091EA01891349C067960FB6F894DEBFE5
:104F30000FBECDBFDF91CF911F91089586E0FE0196
:104F40003796DE01119601900D928A95E1F78A85D8
:104F50009B85892B11F38F81988589238F3FE9F2F7
:104F60002091EA0130E0C9010196877099274091AC
:104F70001B024817190671F40E94DC191092EA010D
:104F800010921B0286E0E4EEF1E0DF011D928A95AB
:104F9000E9F7C3CF96E0929FD001939FB00D112403
:104FA000A551BE4FFE01319601900D929A95E1F701
:104FB0008093EA010E949E0EB0CF819FC001112410
:104FC00085519E4F0E94E725882309F4ADCF80913B
:104FD0001B0290E001968770992780931B029ECF59
:104FE0007F928F929F92AF92BF92CF92DF92EF9279
:104FF000FF920F931F93CF93DF9300D000D00F92B7
:10500000CDB7DEB78E010F5F1F4F85E0D8011D922F
:105010008A95E9F788E5882E81E0982E9EE5E92EAD
:1050200091E0F92E77247394CC24C394D12C33E6E9
:10503000A32E31E0B32EF40181914F018F3F09F48B
:1050400043C0F894E82FE295EF70F0E021A18F7053
:10505000A60102C0440F551F8A95E2F7CA01922F9C
:10506000982B91A392A18095892382A3789400C064
:105070006EE571E0F801472D4095DB019D91BD0182
:1050800080819F3F09F463C0292F22952F7030E063
:10509000D90190962C9130E09F7002C035952795EC
:1050A0009A95E2F720FD53C0872980833196A61692
:1050B000B70619F7F401319780818F3F11F00E94F4
:1050C000AF0CB0EABA95F1F7770CE814F90409F0DF
:1050D000B2CF45E050E0B8018CE292E00E94EA32A3
:1050E000FF24F394009709F4F12C892B91F185E0CA
:1050F000F801ACE2B2E001900D928A95E1F781E00F
:1051000080932B020E94E11790932A028093290238
:105110008091290290912A020E94D2170597E8F007
:1051200080912C028093600280912D028093610215
:1051300080912E028093620280912F0280936302FD
:10514000809130028093640210922B0206C0842367
:10515000ACCF80912B028111DBCF80910401882399
:1051600039F00E940B1E8091040181110E940B1ED8
:105170008F2D0F900F900F900F900F90DF91CF9188
:105180001F910F91FF90EF90DF90CF90BF90AF9065
:105190009F908F907F9008950F931F93CF93DF93ED
:1051A000CDB7DEB72A970FB6F894DEBF0FBECDBFDE
:1051B000182F092F1F830E8381E088870E94E11733
:1051C0008160782F9A8789874E815F8168858A857B
:1051D0000E9460271A8309831B820E94E117816065
:1051E000782F9D838C8349815A816B818D812A968A
:1051F0000FB6F894DEBF0FBECDBFDF91CF911F91E8
:105200000F910C9460271F921FB61F9211248F9349
:105210009F93AF93BF938091CE02811113C0809171
:10522000CF029091D002A091D102B091D2024196CA
:10523000A11DB11D8093CF029093D002A093D10203
:10524000B093D202BF91AF919F918F911F901FBEDB
:105250001F901895CDB7DEB7E1970FB6F894DEBF73
:105260000FBECDBF84B7877F84BF0FB6F894A895D3
:1052700080916000886180936000109260000FBE92
:1052800080E890E00FB6F8948093610090936100FD
:105290000FBE85B7806885BF85B7806885BF8DEAFA
:1052A0009CE09093C7018093C6010E9401090E946F
:1052B000CC098091E20084608093E2007894809130
:1052C000E3028823A1F01091E9001F709091EC0097
:1052D000892F817090FD80E8182B1092E900809151
:1052E000E80083FD0E94E7191F701093E90082E037
:1052F00084BD93E095BD9AEF97BD80936E000E94A8
:10530000C914811102C00E942C1408E511E0FEE5C9
:10531000EF2EF1E0FF2ED8018D918D018F3F11F01E
:105320000E94AF0CE016F106B1F70EE511E0E3E6DE
:10533000EE2EE1E0FE2EF80181918F018F3F11F0FA
:105340000E94AF0CE016F106B1F785E0E0E6F2E06E
:10535000DF01282F1D922A95E9F7ECE2F2E0DF0148
:105360001D928A95E9F780E00E94100F0E94C016F6
:105370000E94C0160E94B516811102C00E943B18FF
:1053800082E090E00E94F732809334020E94E2149F
:1053900090933202809331020E94F027BFEFE6E73C
:1053A000F1E0B150E040F040E1F700C000000E94A1
:1053B000F0278091600280FF08C06FEF7FEF90E0E0
:1053C00080E00E9429330E94191183E090E00E943E
:1053D000F7320E94D8198091F4020E94CF181092DF
:1053E0005D0280E88093ED020E943D306DE070E048
:1053F0008CE492E00E94250F892BE9F580915D02F3
:1054000063E070E081FDA0C289E492E00E94250F74
:10541000892B89F56DE070E089E392E00E94250F09
:10542000892B49F50E948F0A605A75418F4F9F4F13
:105430006093C2027093C3028093C4029093C5022A
:10544000EAEFF2E080E092E0DF019C011D92215042
:105450003040E1F7F093FB04E093FA048FEF9FEF05
:105460009093F9028093F80281E08093C7028093C1
:10547000C60210925E0280913302811133C00E94F5
:10548000B516811104C00E943B180E94A61688E040
:1054900090E00E94FF326093BD027093BE02809341
:1054A000BF029093C0026E7F71F40E94A61688E03E
:1054B00090E00E94FF326093BD027093BE02809321
:1054C000BF029093C0020E94F30A10927902809169
:1054D000BD0280FF04C060E086950E94ED1781E068
:1054E0008093330222982A9A23982B9AEFE8F1E0CE
:1054F0003197F1F700C0000083B182FB882780F963
:105500001B9925C290E0892B80933C0285E091E0B5
:105510009093CB028093CA0280E692E035E0380F88
:105520003DA72090650130906601809163019091C4
:1055300064019FA78EA78091E30270E4F72E00E13B
:1055400012E1853009F43FC20E94F027C82E811174
:105550000E948F0AA0E6B2E0E5E3F2E010E000E08E
:10556000302F8D919191981709F43EC2292F282749
:1055700090E0FF24F394422F4F2109F430C299A305
:105580003AA38F2191E009F490E09BA30E94E117D8
:105590008160782F9DA38CA349A15AA16BA18DA1F5
:1055A0000E946027F801EB5CFD4F8081F826F082B5
:1055B000809179028823D1F180917802E091BD0237
:1055C000E695E81BE0937402823009F024C2F0E013
:1055D000E659FD4FE4910E2F10E06AE8E62E63E1F4
:1055E000F62E80917502882361F0109275020E9458
:1055F000E1179093730280937202109277021092D7
:1056000076020E94E117E0917202F09173028E1B04
:105610009F0B8F3F9F4750F4E00FF11FF0937302F1
:10562000E093720282E792E0F7010995E0913C0273
:10563000EE0FEE0FE0933C0283B182FB662460F82C
:105640001B9955C280E08629E82BE0933C02EF705D
:10565000F0E0ED58FE4F808190913B02890F8093DE
:105660003B02D12C84306CF080913A028F5F8093A2
:105670003A0289EA0E948A1DC1010E94CC28DD24D9
:10568000D39480913B028D3F74F480913A02815013
:1056900080933A028AEA0E948A1D8EA59FA50E94E5
:1056A000CC28DD24D39480913B02082E000C990B6A
:1056B00064E070E00E94483280933B02D1100E9467
:1056C0008F0A8091C7028823C9F18AEF92E09093F4
:1056D000FB048093FA048091F4020E94FF0E813053
:1056E00009F470C2882309F405C2823009F46DC23E
:1056F000EEE6F8E084918F0181116AC281E00E9498
:1057000019108091C7028111F9C18091C6028823C6
:10571000A9F00E948F0A0091C2021091C302209149
:10572000C4023091C502601B710B820B930B6F3F5B
:105730007F4F8F4F9F4710F40E94550FC11001C03B
:10574000D1100E94700F86E0ECE6F2E0DE011196C7
:1057500001900D928A95E1F7F0906E02E0906F0251
:10576000109170020091710210926E0210926F02FD
:1057700010927002109271028F2D8E2909F448C088
:1057800080916A0290916B020E94D2179C019091C5
:105790006602992309F46CC425313105C8F19F3F95
:1057A00019F09F5F90936602FF2059F00E94330C1E
:1057B0009FEF1F140CF491E0899F802D112480939A
:1057C0006E02EE2059F00E94330C9FEF1E140CF471
:1057D00091E0899F802D112480936F0230916E0299
:1057E0003323B1F020916F02222391F045EB340373
:1057F000C0011124992309F46AC290936E0245EB0B
:10580000240390011124332309F465C230936F02FD
:10581000812F802B09F448C0809168029091690221
:105820000E94D2179C0190916502992309F41BC430
:1058300021353105C8F19F3F19F09F5F90936502B4
:10584000112359F00E94110C9FEF11160CF491E0F6
:10585000899F802D112480937002002359F00E94AB
:10586000110C9FEF10160CF491E0899F802D1124EC
:1058700080937102309170023323B1F02091710254
:10588000222391F045EB3403C0011124992309F43C
:1058900026C29093700245EB240390011124332318
:1058A00009F421C23093710280916E0290916F02CF
:1058B000892B90917002892B90917102892B11F0A4
:1058C0000E94351986E0FE013196ACE6B2E0019007
:1058D0000D928A95E1F70E94E10A90915F02891783
:1058E00021F080935F020E94170F8091E3028430C1
:1058F00009F021CE83E08093E9008091E80082FFE7
:105900001ACE8091E80090E085FF0CC00E9420092B
:1059100030E2E32EF12C8E010F5F1F4F882309F434
:10592000F0C191E08091E8008B778093E8009923A3
:1059300009F401CEE981E150E33108F04AC2F0E018
:10594000E856FC4C0C945C3286E492E05FCD92E029
:10595000DACD8091E302843041F180E00E94170F9C
:105960000E94550F1092CE02A8E1B0E00FB6F89455
:10597000A895A09360000FBEF092600083B7817F6E
:10598000846083BF83B7816083BF7894889583B731
:105990008E7F83BF0FB6F894A895809160008861D0
:1059A00080936000109260000FBE8091E202882315
:1059B00051F00E94F027E0E6F2E0819181112BC3C3
:1059C000BDA5BE13FACF8091E302853009F4C1CFA3
:1059D0000E94DC190E94E10A0E94170FB5CD9F5F5B
:1059E000FF0C963009F0C7CD0F5F1F4F0530110532
:1059F00009F0B6CD8FEF8EA38FA318A60E94E117F2
:105A00008160782F9AA789A74EA15FA168A58AA572
:105A10000E946027CDCD863059F4F0E0E959FD4F62
:105A2000E4910E2F10E05AE7E52E53E1F52ED9CD83
:105A3000893061F4E695F0E0EC59FD4FE4910E2FCA
:105A400010E046EEE42E42E1F42ECBCD8F3061F42F
:105A5000E695F0E0EF59FD4FE4910E2F10E032E8AB
:105A6000E32E32E1F32EBDCD853159F4F0E0E25A58
:105A7000FD4FE4910E2F10E024E3E22E22E1F22EFE
:105A8000B0CD08E210E0BBEAEB2EB1E1FB2E88318D
:105A900009F4A7CD833249F4ECE5F2E005911491C5
:105AA00091E2E92E93E1F92E9CCD04EF11E0A2E7FB
:105AB000EA2EA1E1FA2E843209F493CD00ED17E02D
:105AC000F2EFEF2EFAE0FF2E853209F08ACD8E2F0D
:105AD00063E00E943C32E92FF0E0E75AFD4FE49189
